{
  "contractName": "EthDex",
  "abi": [
    {
      "inputs": [
        {
          "internalType": "uint256",
          "name": "initialSupply",
          "type": "uint256"
        },
        {
          "internalType": "string",
          "name": "tokenName",
          "type": "string"
        },
        {
          "internalType": "uint8",
          "name": "decimalUnits",
          "type": "uint8"
        },
        {
          "internalType": "string",
          "name": "tokenSymbol",
          "type": "string"
        }
      ],
      "stateMutability": "nonpayable",
      "type": "constructor"
    },
    {
      "anonymous": false,
      "inputs": [
        {
          "indexed": true,
          "internalType": "address",
          "name": "from",
          "type": "address"
        },
        {
          "indexed": false,
          "internalType": "uint256",
          "name": "value",
          "type": "uint256"
        }
      ],
      "name": "Burn",
      "type": "event"
    },
    {
      "anonymous": false,
      "inputs": [
        {
          "indexed": true,
          "internalType": "address",
          "name": "from",
          "type": "address"
        },
        {
          "indexed": false,
          "internalType": "uint256",
          "name": "value",
          "type": "uint256"
        }
      ],
      "name": "Freeze",
      "type": "event"
    },
    {
      "anonymous": false,
      "inputs": [
        {
          "indexed": true,
          "internalType": "address",
          "name": "from",
          "type": "address"
        },
        {
          "indexed": true,
          "internalType": "address",
          "name": "to",
          "type": "address"
        },
        {
          "indexed": false,
          "internalType": "uint256",
          "name": "value",
          "type": "uint256"
        }
      ],
      "name": "Transfer",
      "type": "event"
    },
    {
      "anonymous": false,
      "inputs": [
        {
          "indexed": true,
          "internalType": "address",
          "name": "from",
          "type": "address"
        },
        {
          "indexed": false,
          "internalType": "uint256",
          "name": "value",
          "type": "uint256"
        }
      ],
      "name": "Unfreeze",
      "type": "event"
    },
    {
      "stateMutability": "payable",
      "type": "fallback",
      "payable": true
    },
    {
      "inputs": [
        {
          "internalType": "address",
          "name": "",
          "type": "address"
        },
        {
          "internalType": "address",
          "name": "",
          "type": "address"
        }
      ],
      "name": "allowance",
      "outputs": [
        {
          "internalType": "uint256",
          "name": "",
          "type": "uint256"
        }
      ],
      "stateMutability": "view",
      "type": "function",
      "constant": true
    },
    {
      "inputs": [
        {
          "internalType": "address",
          "name": "",
          "type": "address"
        }
      ],
      "name": "balanceOf",
      "outputs": [
        {
          "internalType": "uint256",
          "name": "",
          "type": "uint256"
        }
      ],
      "stateMutability": "view",
      "type": "function",
      "constant": true
    },
    {
      "inputs": [
        {
          "internalType": "address",
          "name": "",
          "type": "address"
        }
      ],
      "name": "freezeOf",
      "outputs": [
        {
          "internalType": "uint256",
          "name": "",
          "type": "uint256"
        }
      ],
      "stateMutability": "view",
      "type": "function",
      "constant": true
    },
    {
      "stateMutability": "payable",
      "type": "receive",
      "payable": true
    },
    {
      "inputs": [
        {
          "internalType": "address",
          "name": "_to",
          "type": "address"
        },
        {
          "internalType": "uint256",
          "name": "_value",
          "type": "uint256"
        }
      ],
      "name": "transfer",
      "outputs": [],
      "stateMutability": "nonpayable",
      "type": "function"
    },
    {
      "inputs": [
        {
          "internalType": "address",
          "name": "_spender",
          "type": "address"
        },
        {
          "internalType": "uint256",
          "name": "_value",
          "type": "uint256"
        }
      ],
      "name": "approve",
      "outputs": [
        {
          "internalType": "bool",
          "name": "success",
          "type": "bool"
        }
      ],
      "stateMutability": "nonpayable",
      "type": "function"
    },
    {
      "inputs": [
        {
          "internalType": "address",
          "name": "_from",
          "type": "address"
        },
        {
          "internalType": "address",
          "name": "_to",
          "type": "address"
        },
        {
          "internalType": "uint256",
          "name": "_value",
          "type": "uint256"
        }
      ],
      "name": "transferFrom",
      "outputs": [
        {
          "internalType": "bool",
          "name": "success",
          "type": "bool"
        }
      ],
      "stateMutability": "nonpayable",
      "type": "function"
    },
    {
      "inputs": [
        {
          "internalType": "uint256",
          "name": "_value",
          "type": "uint256"
        }
      ],
      "name": "burn",
      "outputs": [
        {
          "internalType": "bool",
          "name": "success",
          "type": "bool"
        }
      ],
      "stateMutability": "nonpayable",
      "type": "function"
    },
    {
      "inputs": [
        {
          "internalType": "uint256",
          "name": "_value",
          "type": "uint256"
        }
      ],
      "name": "freeze",
      "outputs": [
        {
          "internalType": "bool",
          "name": "success",
          "type": "bool"
        }
      ],
      "stateMutability": "nonpayable",
      "type": "function"
    },
    {
      "inputs": [
        {
          "internalType": "uint256",
          "name": "_value",
          "type": "uint256"
        }
      ],
      "name": "unfreeze",
      "outputs": [
        {
          "internalType": "bool",
          "name": "success",
          "type": "bool"
        }
      ],
      "stateMutability": "nonpayable",
      "type": "function"
    },
    {
      "inputs": [
        {
          "internalType": "uint256",
          "name": "amount",
          "type": "uint256"
        }
      ],
      "name": "withdrawEther",
      "outputs": [],
      "stateMutability": "nonpayable",
      "type": "function"
    },
    {
      "inputs": [],
      "name": "name",
      "outputs": [
        {
          "internalType": "string",
          "name": "",
          "type": "string"
        }
      ],
      "stateMutability": "view",
      "type": "function",
      "constant": true
    },
    {
      "inputs": [],
      "name": "symbol",
      "outputs": [
        {
          "internalType": "string",
          "name": "",
          "type": "string"
        }
      ],
      "stateMutability": "view",
      "type": "function",
      "constant": true
    },
    {
      "inputs": [],
      "name": "decimals",
      "outputs": [
        {
          "internalType": "uint8",
          "name": "",
          "type": "uint8"
        }
      ],
      "stateMutability": "view",
      "type": "function",
      "constant": true
    },
    {
      "inputs": [],
      "name": "totalSupply",
      "outputs": [
        {
          "internalType": "uint256",
          "name": "",
          "type": "uint256"
        }
      ],
      "stateMutability": "view",
      "type": "function",
      "constant": true
    },
    {
      "inputs": [],
      "name": "owner",
      "outputs": [
        {
          "internalType": "address",
          "name": "",
          "type": "address"
        }
      ],
      "stateMutability": "view",
      "type": "function",
      "constant": true
    }
  ],
  "bytecode": "0x60806040523480156200001157600080fd5b506040516200200a3803806200200a8339818101604052810190620000379190620003e0565b83600560003373ffffffffffffffffffffffffffffffffffffffff1673ffffffffffffffffffffffffffffffffffffffff168152602001908152602001600020819055508360038190555082600090805190602001906200009a9291906200011a565b508060019080519060200190620000b39291906200011a565b5081600260006101000a81548160ff021916908360ff16021790555033600460006101000a81548173ffffffffffffffffffffffffffffffffffffffff021916908373ffffffffffffffffffffffffffffffffffffffff16021790555050505050620004f4565b8280546200012890620004bf565b90600052602060002090601f0160209004810192826200014c576000855562000198565b82601f106200016757805160ff191683800117855562000198565b8280016001018555821562000198579182015b82811115620001975782518255916020019190600101906200017a565b5b509050620001a79190620001ab565b5090565b5b80821115620001c6576000816000905550600101620001ac565b5090565b6000604051905090565b600080fd5b600080fd5b6000819050919050565b620001f381620001de565b8114620001ff57600080fd5b50565b6000815190506200021381620001e8565b92915050565b600080fd5b600080fd5b6000601f19601f8301169050919050565b7f4e487b7100000000000000000000000000000000000000000000000000000000600052604160045260246000fd5b6200026e8262000223565b810181811067ffffffffffffffff8211171562000290576200028f62000234565b5b80604052505050565b6000620002a5620001ca565b9050620002b3828262000263565b919050565b600067ffffffffffffffff821115620002d657620002d562000234565b5b620002e18262000223565b9050602081019050919050565b60005b838110156200030e578082015181840152602081019050620002f1565b838111156200031e576000848401525b50505050565b60006200033b6200033584620002b8565b62000299565b9050828152602081018484840111156200035a57620003596200021e565b5b62000367848285620002ee565b509392505050565b600082601f83011262000387576200038662000219565b5b81516200039984826020860162000324565b91505092915050565b600060ff82169050919050565b620003ba81620003a2565b8114620003c657600080fd5b50565b600081519050620003da81620003af565b92915050565b60008060008060808587031215620003fd57620003fc620001d4565b5b60006200040d8782880162000202565b945050602085015167ffffffffffffffff811115620004315762000430620001d9565b5b6200043f878288016200036f565b93505060406200045287828801620003c9565b925050606085015167ffffffffffffffff811115620004765762000475620001d9565b5b62000484878288016200036f565b91505092959194509250565b7f4e487b7100000000000000000000000000000000000000000000000000000000600052602260045260246000fd5b60006002820490506001821680620004d857607f821691505b602082108103620004ee57620004ed62000490565b5b50919050565b611b0680620005046000396000f3fe6080604052600436106100ec5760003560e01c80636623fc461161008a578063a9059cbb11610059578063a9059cbb14610326578063cd4217c11461034f578063d7a78db81461038c578063dd62ed3e146103c9576100f3565b80636623fc461461025657806370a08231146102935780638da5cb5b146102d057806395d89b41146102fb576100f3565b806323b872dd116100c657806323b872dd14610188578063313ce567146101c55780633bed33ce146101f057806342966c6814610219576100f3565b806306fdde03146100f5578063095ea7b31461012057806318160ddd1461015d576100f3565b366100f357005b005b34801561010157600080fd5b5061010a610406565b60405161011791906114f2565b60405180910390f35b34801561012c57600080fd5b50610147600480360381019061014291906115ad565b610498565b6040516101549190611608565b60405180910390f35b34801561016957600080fd5b50610172610531565b60405161017f9190611632565b60405180910390f35b34801561019457600080fd5b506101af60048036038101906101aa919061164d565b61053b565b6040516101bc9190611608565b60405180910390f35b3480156101d157600080fd5b506101da610a88565b6040516101e791906116bc565b60405180910390f35b3480156101fc57600080fd5b50610217600480360381019061021291906116d7565b610a9f565b005b34801561022557600080fd5b50610240600480360381019061023b91906116d7565b610b65565b60405161024d9190611608565b60405180910390f35b34801561026257600080fd5b5061027d600480360381019061027891906116d7565b610cb5565b60405161028a9190611608565b60405180910390f35b34801561029f57600080fd5b506102ba60048036038101906102b59190611704565b610e7f565b6040516102c79190611632565b60405180910390f35b3480156102dc57600080fd5b506102e5610e97565b6040516102f29190611740565b60405180910390f35b34801561030757600080fd5b50610310610ec1565b60405161031d91906114f2565b60405180910390f35b34801561033257600080fd5b5061034d600480360381019061034891906115ad565b610f53565b005b34801561035b57600080fd5b5061037660048036038101906103719190611704565b6111fb565b6040516103839190611632565b60405180910390f35b34801561039857600080fd5b506103b360048036038101906103ae91906116d7565b611213565b6040516103c09190611608565b60405180910390f35b3480156103d557600080fd5b506103f060048036038101906103eb919061175b565b6113dd565b6040516103fd9190611632565b60405180910390f35b606060008054610415906117ca565b80601f0160208091040260200160405190810160405280929190818152602001828054610441906117ca565b801561048e5780601f106104635761010080835404028352916020019161048e565b820191906000526020600020905b81548152906001019060200180831161047157829003601f168201915b5050505050905090565b60008082116104a657600080fd5b81600760003373ffffffffffffffffffffffffffffffffffffffff1673ffffffffffffffffffffffffffffffffffffffff16815260200190815260200160002060008573ffffffffffffffffffffffffffffffffffffffff1673ffffffffffffffffffffffffffffffffffffffff168152602001908152602001600020819055506001905092915050565b6000600354905090565b60008073ffffffffffffffffffffffffffffffffffffffff168373ffffffffffffffffffffffffffffffffffffffff16036105ab576040517f08c379a00000000000000000000000000000000000000000000000000000000081526004016105a290611847565b60405180910390fd5b600082116105ee576040517f08c379a00000000000000000000000000000000000000000000000000000000081526004016105e5906118b3565b60405180910390fd5b81600560008673ffffffffffffffffffffffffffffffffffffffff1673ffffffffffffffffffffffffffffffffffffffff168152602001908152602001600020541015610670576040517f08c379a00000000000000000000000000000000000000000000000000000000081526004016106679061191f565b60405180910390fd5b600560008473ffffffffffffffffffffffffffffffffffffffff1673ffffffffffffffffffffffffffffffffffffffff1681526020019081526020016000205482600560008673ffffffffffffffffffffffffffffffffffffffff1673ffffffffffffffffffffffffffffffffffffffff168152602001908152602001600020546106fb919061196e565b1161073b576040517f08c379a000000000000000000000000000000000000000000000000000000000815260040161073290611a10565b60405180910390fd5b600760008573ffffffffffffffffffffffffffffffffffffffff1673ffffffffffffffffffffffffffffffffffffffff16815260200190815260200160002060003373ffffffffffffffffffffffffffffffffffffffff1673ffffffffffffffffffffffffffffffffffffffff168152602001908152602001600020548211156107fa576040517f08c379a00000000000000000000000000000000000000000000000000000000081526004016107f190611a7c565b60405180910390fd5b610843600560008673ffffffffffffffffffffffffffffffffffffffff1673ffffffffffffffffffffffffffffffffffffffff1681526020019081526020016000205483611402565b600560008673ffffffffffffffffffffffffffffffffffffffff1673ffffffffffffffffffffffffffffffffffffffff168152602001908152602001600020819055506108cf600560008573ffffffffffffffffffffffffffffffffffffffff1673ffffffffffffffffffffffffffffffffffffffff1681526020019081526020016000205483611425565b600560008573ffffffffffffffffffffffffffffffffffffffff1673ffffffffffffffffffffffffffffffffffffffff16815260200190815260200160002081905550610998600760008673ffffffffffffffffffffffffffffffffffffffff1673ffffffffffffffffffffffffffffffffffffffff16815260200190815260200160002060003373ffffffffffffffffffffffffffffffffffffffff1673ffffffffffffffffffffffffffffffffffffffff1681526020019081526020016000205483611402565b600760008673ffffffffffffffffffffffffffffffffffffffff1673ffffffffffffffffffffffffffffffffffffffff16815260200190815260200160002060003373ffffffffffffffffffffffffffffffffffffffff1673ffffffffffffffffffffffffffffffffffffffff168152602001908152602001600020819055508273ffffffffffffffffffffffffffffffffffffffff168473ffffffffffffffffffffffffffffffffffffffff167fddf252ad1be2c89b69c2b068fc378daa952ba7f163c4a11628f55a4df523b3ef84604051610a759190611632565b60405180910390a3600190509392505050565b6000600260009054906101000a900460ff16905090565b600460009054906101000a900473ffffffffffffffffffffffffffffffffffffffff1673ffffffffffffffffffffffffffffffffffffffff163373ffffffffffffffffffffffffffffffffffffffff1614610af957600080fd5b600460009054906101000a900473ffffffffffffffffffffffffffffffffffffffff1673ffffffffffffffffffffffffffffffffffffffff166108fc829081150290604051600060405180830381858888f19350505050158015610b61573d6000803e3d6000fd5b5050565b600081600560003373ffffffffffffffffffffffffffffffffffffffff1673ffffffffffffffffffffffffffffffffffffffff168152602001908152602001600020541015610bb357600080fd5b60008211610bc057600080fd5b610c09600560003373ffffffffffffffffffffffffffffffffffffffff1673ffffffffffffffffffffffffffffffffffffffff1681526020019081526020016000205483611402565b600560003373ffffffffffffffffffffffffffffffffffffffff1673ffffffffffffffffffffffffffffffffffffffff16815260200190815260200160002081905550610c5860035483611402565b6003819055503373ffffffffffffffffffffffffffffffffffffffff167fcc16f5dbb4873280815c1ee09dbd06736cffcc184412cf7a71a0fdb75d397ca583604051610ca49190611632565b60405180910390a260019050919050565b600081600660003373ffffffffffffffffffffffffffffffffffffffff1673ffffffffffffffffffffffffffffffffffffffff168152602001908152602001600020541015610d0357600080fd5b60008211610d1057600080fd5b610d59600660003373ffffffffffffffffffffffffffffffffffffffff1673ffffffffffffffffffffffffffffffffffffffff1681526020019081526020016000205483611402565b600660003373ffffffffffffffffffffffffffffffffffffffff1673ffffffffffffffffffffffffffffffffffffffff16815260200190815260200160002081905550610de5600560003373ffffffffffffffffffffffffffffffffffffffff1673ffffffffffffffffffffffffffffffffffffffff1681526020019081526020016000205483611425565b600560003373ffffffffffffffffffffffffffffffffffffffff1673ffffffffffffffffffffffffffffffffffffffff168152602001908152602001600020819055503373ffffffffffffffffffffffffffffffffffffffff167f2cfce4af01bcb9d6cf6c84ee1b7c491100b8695368264146a94d71e10a63083f83604051610e6e9190611632565b60405180910390a260019050919050565b60056020528060005260406000206000915090505481565b6000600460009054906101000a900473ffffffffffffffffffffffffffffffffffffffff16905090565b606060018054610ed0906117ca565b80601f0160208091040260200160405190810160405280929190818152602001828054610efc906117ca565b8015610f495780601f10610f1e57610100808354040283529160200191610f49565b820191906000526020600020905b815481529060010190602001808311610f2c57829003601f168201915b5050505050905090565b600073ffffffffffffffffffffffffffffffffffffffff168273ffffffffffffffffffffffffffffffffffffffff1603610f8c57600080fd5b60008111610f9957600080fd5b80600560003373ffffffffffffffffffffffffffffffffffffffff1673ffffffffffffffffffffffffffffffffffffffff168152602001908152602001600020541015610fe557600080fd5b600560008373ffffffffffffffffffffffffffffffffffffffff1673ffffffffffffffffffffffffffffffffffffffff1681526020019081526020016000205481600560008573ffffffffffffffffffffffffffffffffffffffff1673ffffffffffffffffffffffffffffffffffffffff16815260200190815260200160002054611070919061196e565b1161107a57600080fd5b6110c3600560003373ffffffffffffffffffffffffffffffffffffffff1673ffffffffffffffffffffffffffffffffffffffff1681526020019081526020016000205482611402565b600560003373ffffffffffffffffffffffffffffffffffffffff1673ffffffffffffffffffffffffffffffffffffffff1681526020019081526020016000208190555061114f600560008473ffffffffffffffffffffffffffffffffffffffff1673ffffffffffffffffffffffffffffffffffffffff1681526020019081526020016000205482611425565b600560008473ffffffffffffffffffffffffffffffffffffffff1673ffffffffffffffffffffffffffffffffffffffff168152602001908152602001600020819055508173ffffffffffffffffffffffffffffffffffffffff163373ffffffffffffffffffffffffffffffffffffffff167fddf252ad1be2c89b69c2b068fc378daa952ba7f163c4a11628f55a4df523b3ef836040516111ef9190611632565b60405180910390a35050565b60066020528060005260406000206000915090505481565b600081600560003373ffffffffffffffffffffffffffffffffffffffff1673ffffffffffffffffffffffffffffffffffffffff16815260200190815260200160002054101561126157600080fd5b6000821161126e57600080fd5b6112b7600560003373ffffffffffffffffffffffffffffffffffffffff1673ffffffffffffffffffffffffffffffffffffffff1681526020019081526020016000205483611402565b600560003373ffffffffffffffffffffffffffffffffffffffff1673ffffffffffffffffffffffffffffffffffffffff16815260200190815260200160002081905550611343600660003373ffffffffffffffffffffffffffffffffffffffff1673ffffffffffffffffffffffffffffffffffffffff1681526020019081526020016000205483611425565b600660003373ffffffffffffffffffffffffffffffffffffffff1673ffffffffffffffffffffffffffffffffffffffff168152602001908152602001600020819055503373ffffffffffffffffffffffffffffffffffffffff167ff97a274face0b5517365ad396b1fdba6f68bd3135ef603e44272adba3af5a1e0836040516113cc9190611632565b60405180910390a260019050919050565b6007602052816000526040600020602052806000526040600020600091509150505481565b60008282111561141157600080fd5b818361141d9190611a9c565b905092915050565b6000808284611434919061196e565b90508381101580156114465750828110155b61144f57600080fd5b8091505092915050565b600081519050919050565b600082825260208201905092915050565b60005b83811015611493578082015181840152602081019050611478565b838111156114a2576000848401525b50505050565b6000601f19601f8301169050919050565b60006114c482611459565b6114ce8185611464565b93506114de818560208601611475565b6114e7816114a8565b840191505092915050565b6000602082019050818103600083015261150c81846114b9565b905092915050565b600080fd5b600073ffffffffffffffffffffffffffffffffffffffff82169050919050565b600061154482611519565b9050919050565b61155481611539565b811461155f57600080fd5b50565b6000813590506115718161154b565b92915050565b6000819050919050565b61158a81611577565b811461159557600080fd5b50565b6000813590506115a781611581565b92915050565b600080604083850312156115c4576115c3611514565b5b60006115d285828601611562565b92505060206115e385828601611598565b9150509250929050565b60008115159050919050565b611602816115ed565b82525050565b600060208201905061161d60008301846115f9565b92915050565b61162c81611577565b82525050565b60006020820190506116476000830184611623565b92915050565b60008060006060848603121561166657611665611514565b5b600061167486828701611562565b935050602061168586828701611562565b925050604061169686828701611598565b9150509250925092565b600060ff82169050919050565b6116b6816116a0565b82525050565b60006020820190506116d160008301846116ad565b92915050565b6000602082840312156116ed576116ec611514565b5b60006116fb84828501611598565b91505092915050565b60006020828403121561171a57611719611514565b5b600061172884828501611562565b91505092915050565b61173a81611539565b82525050565b60006020820190506117556000830184611731565b92915050565b6000806040838503121561177257611771611514565b5b600061178085828601611562565b925050602061179185828601611562565b9150509250929050565b7f4e487b7100000000000000000000000000000000000000000000000000000000600052602260045260246000fd5b600060028204905060018216806117e257607f821691505b6020821081036117f5576117f461179b565b5b50919050565b7f557365206275726e2066756e6374696f6e20746f206275726e20746f6b656e73600082015250565b6000611831602083611464565b915061183c826117fb565b602082019050919050565b6000602082019050818103600083015261186081611824565b9050919050565b7f56616c7565206d7573742062652067726561746572207468616e203000000000600082015250565b600061189d601c83611464565b91506118a882611867565b602082019050919050565b600060208201905081810360008301526118cc81611890565b9050919050565b7f496e73756666696369656e742042616c616e6365000000000000000000000000600082015250565b6000611909601483611464565b9150611914826118d3565b602082019050919050565b60006020820190508181036000830152611938816118fc565b9050919050565b7f4e487b7100000000000000000000000000000000000000000000000000000000600052601160045260246000fd5b600061197982611577565b915061198483611577565b9250827fffffffffffffffffffffffffffffffffffffffffffffffffffffffffffffffff038211156119b9576119b861193f565b5b828201905092915050565b7f526563697069656e74204f766572666c6f770000000000000000000000000000600082015250565b60006119fa601283611464565b9150611a05826119c4565b602082019050919050565b60006020820190508181036000830152611a29816119ed565b9050919050565b7f496e73756666696369656e7420416c6c6f77616e636500000000000000000000600082015250565b6000611a66601683611464565b9150611a7182611a30565b602082019050919050565b60006020820190508181036000830152611a9581611a59565b9050919050565b6000611aa782611577565b9150611ab283611577565b925082821015611ac557611ac461193f565b5b82820390509291505056fea264697066735822122041302627fcf6ef7dcd6c2bbc88b369c11ec64658f9dae79b9931632878ef03cb64736f6c634300080e0033",
  "immutableReferences": {},
  "source": "// SPDX-License-Identifier: MIT\npragma solidity ^0.8.14;\n\n/**\n * Math operations with safety checks\n */\ncontract SafeMath {\n    function safeMul(uint256 a, uint256 b) internal pure returns (uint256) {\n        uint256 c = a * b;\n        require(a == 0 || c / a == b);\n        return c;\n    }\n\n    function safeDiv(uint256 a, uint256 b) internal pure returns (uint256) {\n        require(b > 0);\n        uint256 c = a / b;\n        require(a == b * c + (a % b));\n        return c;\n    }\n\n    function safeSub(uint256 a, uint256 b) internal pure returns (uint256) {\n        require(b <= a);\n        return a - b;\n    }\n\n    function safeAdd(uint256 a, uint256 b) internal pure returns (uint256) {\n        uint256 c = a + b;\n        require(c >= a && c >= b);\n        return c;\n    }\n}\n\ncontract EthDex is SafeMath {\n    string private _name;\n    string private _symbol;\n    uint8 private _decimals;\n    uint256 private _totalSupply;\n    address payable private _owner;\n\n    /* This creates an array with all balances */\n    mapping(address => uint256) public balanceOf;\n    mapping(address => uint256) public freezeOf;\n    mapping(address => mapping(address => uint256)) public allowance;\n\n    /* This generates a public event on the blockchain that will notify clients */\n    event Transfer(address indexed from, address indexed to, uint256 value);\n\n    /* This notifies clients about the amount burnt */\n    event Burn(address indexed from, uint256 value);\n\n    /* This notifies clients about the amount frozen */\n    event Freeze(address indexed from, uint256 value);\n\n    /* This notifies clients about the amount unfrozen */\n    event Unfreeze(address indexed from, uint256 value);\n\n    /* Initializes contract with initial supply tokens to the creator of the contract */\n    constructor(\n        uint256 initialSupply,\n        string memory tokenName,\n        uint8 decimalUnits,\n        string memory tokenSymbol\n    ) {\n        balanceOf[msg.sender] = initialSupply; // Give the creator all initial tokens\n        _totalSupply = initialSupply; // Update total supply\n        _name = tokenName; // Set the name for display purposes\n        _symbol = tokenSymbol; // Set the symbol for display purposes\n        _decimals = decimalUnits; // Amount of decimals for display purposes\n        _owner = payable(msg.sender);\n    }\n\n    /* Send coins */\n    function transfer(address _to, uint256 _value) public {\n        require(_to != address(0x0)); // Prevent transfer to 0x0 address. Use burn() instead\n        require(_value > 0);\n        require(balanceOf[msg.sender] >= _value); // Check if the sender has enough\n        require(balanceOf[_to] + _value > balanceOf[_to]); // Check for overflows\n        balanceOf[msg.sender] = SafeMath.safeSub(balanceOf[msg.sender], _value); // Subtract from the sender\n        balanceOf[_to] = SafeMath.safeAdd(balanceOf[_to], _value); // Add the same to the recipient\n        emit Transfer(msg.sender, _to, _value); // Notify anyone listening that this transfer took place\n    }\n\n    /* Allow another contract to spend some tokens in your behalf */\n    function approve(address _spender, uint256 _value)\n        public\n        returns (bool success)\n    {\n        require(_value > 0);\n        allowance[msg.sender][_spender] = _value;\n        return true;\n    }\n\n    /* A contract attempts to get the coins */\n    function transferFrom(\n        address _from,\n        address _to,\n        uint256 _value\n    ) public returns (bool success) {\n        require(_to != address(0x0), 'Use burn function to burn tokens'); // Prevent transfer to 0x0 address. Use burn() instead\n        require(_value > 0, 'Value must be greater than 0');\n        require(balanceOf[_from] >= _value, 'Insufficient Balance'); // Check if the sender has enough\n        require(balanceOf[_to] + _value > balanceOf[_to], 'Recipient Overflow'); // Check for overflows\n        require(\n            _value <= allowance[_from][msg.sender],\n            'Insufficient Allowance'\n        ); // Check allowance\n        balanceOf[_from] = SafeMath.safeSub(balanceOf[_from], _value); // Subtract from the sender\n        balanceOf[_to] = SafeMath.safeAdd(balanceOf[_to], _value); // Add the same to the recipient\n        allowance[_from][msg.sender] = SafeMath.safeSub(\n            allowance[_from][msg.sender],\n            _value\n        );\n        emit Transfer(_from, _to, _value);\n        return true;\n    }\n\n    function burn(uint256 _value) public returns (bool success) {\n        require(balanceOf[msg.sender] >= _value); // Check if the sender has enough\n        require(_value > 0);\n        balanceOf[msg.sender] = SafeMath.safeSub(balanceOf[msg.sender], _value); // Subtract from the sender\n        _totalSupply = SafeMath.safeSub(_totalSupply, _value); // Updates totalSupply\n        emit Burn(msg.sender, _value);\n        return true;\n    }\n\n    function freeze(uint256 _value) public returns (bool success) {\n        require(balanceOf[msg.sender] >= _value); // Check if the sender has enough\n        require(_value > 0);\n        balanceOf[msg.sender] = SafeMath.safeSub(balanceOf[msg.sender], _value); // Subtract from the sender\n        freezeOf[msg.sender] = SafeMath.safeAdd(freezeOf[msg.sender], _value); // Updates totalSupply\n        emit Freeze(msg.sender, _value);\n        return true;\n    }\n\n    function unfreeze(uint256 _value) public returns (bool success) {\n        require(freezeOf[msg.sender] >= _value); // Check if the sender has enough\n        require(_value > 0);\n        freezeOf[msg.sender] = SafeMath.safeSub(freezeOf[msg.sender], _value); // Subtract from the sender\n        balanceOf[msg.sender] = SafeMath.safeAdd(balanceOf[msg.sender], _value);\n        emit Unfreeze(msg.sender, _value);\n        return true;\n    }\n\n    // transfer balance to owner\n    function withdrawEther(uint256 amount) public {\n        require(msg.sender == _owner);\n        _owner.transfer(amount);\n    }\n\n    function name() public view returns (string memory) {\n        return _name;\n    }\n\n    function symbol() public view returns (string memory) {\n        return _symbol;\n    }\n\n    function decimals() public view returns (uint8) {\n        return _decimals;\n    }\n\n    function totalSupply() public view returns (uint256) {\n        return _totalSupply;\n    }\n\n    function owner() public view returns (address) {\n        return _owner;\n    }\n\n    // can accept ether\n    fallback() external payable {}\n\n    receive() external payable {}\n}\n",
  "sourcePath": "/home/ankush/eth-dex/src/contracts/EthDex.sol",
  "compiler": {
    "name": "solc",
    "version": "0.8.14+commit.80d49f37.Emscripten.clang"
  },
  "schemaVersion": "3.3.4",
  "updatedAt": "2023-05-12T05:32:14.227Z",
  "networkType": "ethereum",
  "devdoc": {
    "kind": "dev",
    "methods": {},
    "version": 1
  },
  "userdoc": {
    "kind": "user",
    "methods": {},
    "version": 1
  }
}