{
  "contractName": "EthSwap",
  "abi": [
    {
      "inputs": [
        {
          "internalType": "contract EthDex",
          "name": "_ethDex",
          "type": "address"
        }
      ],
      "stateMutability": "nonpayable",
      "type": "constructor"
    },
    {
      "anonymous": false,
      "inputs": [
        {
          "indexed": false,
          "internalType": "address",
          "name": "from",
          "type": "address"
        },
        {
          "indexed": false,
          "internalType": "address",
          "name": "token",
          "type": "address"
        },
        {
          "indexed": false,
          "internalType": "uint256",
          "name": "amount",
          "type": "uint256"
        },
        {
          "indexed": false,
          "internalType": "uint256",
          "name": "rate",
          "type": "uint256"
        }
      ],
      "name": "TokenSwap",
      "type": "event"
    },
    {
      "inputs": [],
      "name": "_name",
      "outputs": [
        {
          "internalType": "string",
          "name": "",
          "type": "string"
        }
      ],
      "stateMutability": "view",
      "type": "function",
      "constant": true
    },
    {
      "inputs": [],
      "name": "ethDex",
      "outputs": [
        {
          "internalType": "contract EthDex",
          "name": "",
          "type": "address"
        }
      ],
      "stateMutability": "view",
      "type": "function",
      "constant": true
    },
    {
      "inputs": [],
      "name": "rate",
      "outputs": [
        {
          "internalType": "uint256",
          "name": "",
          "type": "uint256"
        }
      ],
      "stateMutability": "view",
      "type": "function",
      "constant": true
    },
    {
      "inputs": [],
      "name": "buyTokens",
      "outputs": [
        {
          "internalType": "bool",
          "name": "success",
          "type": "bool"
        }
      ],
      "stateMutability": "payable",
      "type": "function",
      "payable": true
    },
    {
      "inputs": [
        {
          "internalType": "uint256",
          "name": "_value",
          "type": "uint256"
        }
      ],
      "name": "sellTokens",
      "outputs": [
        {
          "internalType": "bool",
          "name": "success",
          "type": "bool"
        }
      ],
      "stateMutability": "nonpayable",
      "type": "function"
    },
    {
      "inputs": [],
      "name": "name",
      "outputs": [
        {
          "internalType": "string",
          "name": "",
          "type": "string"
        }
      ],
      "stateMutability": "view",
      "type": "function",
      "constant": true
    }
  ],
  "bytecode": "0x60806040526040518060400160405280601881526020017f4574685377617020496e7374616e742045786368616e676500000000000000008152506000908051906020019062000051929190620000d2565b5060646002553480156200006457600080fd5b5060405162000ef538038062000ef583398181016040528101906200008a919062000200565b80600160006101000a81548173ffffffffffffffffffffffffffffffffffffffff021916908373ffffffffffffffffffffffffffffffffffffffff1602179055505062000296565b828054620000e09062000261565b90600052602060002090601f01602090048101928262000104576000855562000150565b82601f106200011f57805160ff191683800117855562000150565b8280016001018555821562000150579182015b828111156200014f57825182559160200191906001019062000132565b5b5090506200015f919062000163565b5090565b5b808211156200017e57600081600090555060010162000164565b5090565b600080fd5b600073ffffffffffffffffffffffffffffffffffffffff82169050919050565b6000620001b48262000187565b9050919050565b6000620001c882620001a7565b9050919050565b620001da81620001bb565b8114620001e657600080fd5b50565b600081519050620001fa81620001cf565b92915050565b60006020828403121562000219576200021862000182565b5b60006200022984828501620001e9565b91505092915050565b7f4e487b7100000000000000000000000000000000000000000000000000000000600052602260045260246000fd5b600060028204905060018216806200027a57607f821691505b60208210810362000290576200028f62000232565b5b50919050565b610c4f80620002a66000396000f3fe6080604052600436106100555760003560e01c806306fdde031461005a5780632c4e722e146100855780636c11bcd3146100b0578063d0febe4c146100ed578063d28d88521461010b578063fdb2ded614610136575b600080fd5b34801561006657600080fd5b5061006f610161565b60405161007c9190610764565b60405180910390f35b34801561009157600080fd5b5061009a6101f3565b6040516100a7919061079f565b60405180910390f35b3480156100bc57600080fd5b506100d760048036038101906100d291906107eb565b6101f9565b6040516100e49190610833565b60405180910390f35b6100f561042e565b6040516101029190610833565b60405180910390f35b34801561011757600080fd5b50610120610617565b60405161012d9190610764565b60405180910390f35b34801561014257600080fd5b5061014b6106a5565b60405161015891906108cd565b60405180910390f35b60606000805461017090610917565b80601f016020809104026020016040519081016040528092919081815260200182805461019c90610917565b80156101e95780601f106101be576101008083540402835291602001916101e9565b820191906000526020600020905b8154815290600101906020018083116101cc57829003601f168201915b5050505050905090565b60025481565b600081600160009054906101000a900473ffffffffffffffffffffffffffffffffffffffff1673ffffffffffffffffffffffffffffffffffffffff166370a08231336040518263ffffffff1660e01b81526004016102579190610969565b602060405180830381865afa158015610274573d6000803e3d6000fd5b505050506040513d601f19601f820116820180604052508101906102989190610999565b10156102a357600080fd5b6000600254836102b39190610a24565b9050803073ffffffffffffffffffffffffffffffffffffffff163110156102d957600080fd5b600160009054906101000a900473ffffffffffffffffffffffffffffffffffffffff1673ffffffffffffffffffffffffffffffffffffffff166323b872dd3330866040518463ffffffff1660e01b815260040161033893929190610a55565b6020604051808303816000875af1158015610357573d6000803e3d6000fd5b505050506040513d601f19601f8201168201806040525081019061037b9190610ab8565b503373ffffffffffffffffffffffffffffffffffffffff166108fc829081150290604051600060405180830381858888f193505050501580156103c2573d6000803e3d6000fd5b507f1f2c1de040604eaf4a8c72b05bd7c16fae213f15cbde69ecf70dd3b97fef1f2f33600160009054906101000a900473ffffffffffffffffffffffffffffffffffffffff168560025460405161041c9493929190610ae5565b60405180910390a16001915050919050565b6000806002543461043f9190610b2a565b905080600160009054906101000a900473ffffffffffffffffffffffffffffffffffffffff1673ffffffffffffffffffffffffffffffffffffffff166370a08231306040518263ffffffff1660e01b815260040161049d9190610969565b602060405180830381865afa1580156104ba573d6000803e3d6000fd5b505050506040513d601f19601f820116820180604052508101906104de9190610999565b101561051f576040517f08c379a000000000000000000000000000000000000000000000000000000000815260040161051690610bd0565b60405180910390fd5b600160009054906101000a900473ffffffffffffffffffffffffffffffffffffffff1673ffffffffffffffffffffffffffffffffffffffff1663a9059cbb33836040518363ffffffff1660e01b815260040161057c929190610bf0565b600060405180830381600087803b15801561059657600080fd5b505af11580156105aa573d6000803e3d6000fd5b505050507f1f2c1de040604eaf4a8c72b05bd7c16fae213f15cbde69ecf70dd3b97fef1f2f33600160009054906101000a900473ffffffffffffffffffffffffffffffffffffffff16836002546040516106079493929190610ae5565b60405180910390a1600191505090565b6000805461062490610917565b80601f016020809104026020016040519081016040528092919081815260200182805461065090610917565b801561069d5780601f106106725761010080835404028352916020019161069d565b820191906000526020600020905b81548152906001019060200180831161068057829003601f168201915b505050505081565b600160009054906101000a900473ffffffffffffffffffffffffffffffffffffffff1681565b600081519050919050565b600082825260208201905092915050565b60005b838110156107055780820151818401526020810190506106ea565b83811115610714576000848401525b50505050565b6000601f19601f8301169050919050565b6000610736826106cb565b61074081856106d6565b93506107508185602086016106e7565b6107598161071a565b840191505092915050565b6000602082019050818103600083015261077e818461072b565b905092915050565b6000819050919050565b61079981610786565b82525050565b60006020820190506107b46000830184610790565b92915050565b600080fd5b6107c881610786565b81146107d357600080fd5b50565b6000813590506107e5816107bf565b92915050565b600060208284031215610801576108006107ba565b5b600061080f848285016107d6565b91505092915050565b60008115159050919050565b61082d81610818565b82525050565b60006020820190506108486000830184610824565b92915050565b600073ffffffffffffffffffffffffffffffffffffffff82169050919050565b6000819050919050565b600061089361088e6108898461084e565b61086e565b61084e565b9050919050565b60006108a582610878565b9050919050565b60006108b78261089a565b9050919050565b6108c7816108ac565b82525050565b60006020820190506108e260008301846108be565b92915050565b7f4e487b7100000000000000000000000000000000000000000000000000000000600052602260045260246000fd5b6000600282049050600182168061092f57607f821691505b602082108103610942576109416108e8565b5b50919050565b60006109538261084e565b9050919050565b61096381610948565b82525050565b600060208201905061097e600083018461095a565b92915050565b600081519050610993816107bf565b92915050565b6000602082840312156109af576109ae6107ba565b5b60006109bd84828501610984565b91505092915050565b7f4e487b7100000000000000000000000000000000000000000000000000000000600052601260045260246000fd5b7f4e487b7100000000000000000000000000000000000000000000000000000000600052601160045260246000fd5b6000610a2f82610786565b9150610a3a83610786565b925082610a4a57610a496109c6565b5b828204905092915050565b6000606082019050610a6a600083018661095a565b610a77602083018561095a565b610a846040830184610790565b949350505050565b610a9581610818565b8114610aa057600080fd5b50565b600081519050610ab281610a8c565b92915050565b600060208284031215610ace57610acd6107ba565b5b6000610adc84828501610aa3565b91505092915050565b6000608082019050610afa600083018761095a565b610b07602083018661095a565b610b146040830185610790565b610b216060830184610790565b95945050505050565b6000610b3582610786565b9150610b4083610786565b9250817fffffffffffffffffffffffffffffffffffffffffffffffffffffffffffffffff0483118215151615610b7957610b786109f5565b5b828202905092915050565b7f496e73756666696369656e742042616c616e6365000000000000000000000000600082015250565b6000610bba6014836106d6565b9150610bc582610b84565b602082019050919050565b60006020820190508181036000830152610be981610bad565b9050919050565b6000604082019050610c05600083018561095a565b610c126020830184610790565b939250505056fea2646970667358221220728bb4df0783974208f03870eb0408668f60ab82f687d300acdc051ea8729ffc64736f6c634300080e0033",
  "immutableReferences": {},
  "source": "// SPDX-License-Identifier: MIT\npragma solidity ^0.8.14;\n\nimport './EthDex.sol';\n\ncontract EthSwap {\n    string public _name = 'EthSwap Instant Exchange';\n    EthDex public ethDex;\n    uint256 public rate = 100;\n\n    event TokenSwap(address from, address token, uint256 amount, uint256 rate);\n\n    constructor(EthDex _ethDex) {\n        ethDex = _ethDex;\n    }\n\n    function buyTokens() public payable returns (bool success) {\n        // Calculate the number of EthDex tokens to purchase\n        uint256 tokenAmount = msg.value * rate;\n\n        // Require EthSwap has enough tokens\n        require(\n            ethDex.balanceOf(address(this)) >= tokenAmount,\n            'Insufficient Balance'\n        );\n        ethDex.transfer(msg.sender, tokenAmount);\n\n        // Emit a token bought event\n        emit TokenSwap(msg.sender, address(ethDex), tokenAmount, rate);\n        return true;\n    }\n\n    function sellTokens(uint256 _value) public returns (bool success) {\n        // User cannot sell more tokens than in balance\n        require(ethDex.balanceOf(msg.sender) >= _value);\n\n        // Calculate the amoiunt of Ether to purchase\n        uint256 etherAmount = _value / rate;\n\n        // Require EthSwap has enough Ether\n        require(address(this).balance >= etherAmount);\n\n        // Transfer to EthSwap\n        ethDex.transferFrom(msg.sender, address(this), _value);\n        payable(msg.sender).transfer(etherAmount);\n        emit TokenSwap(msg.sender, address(ethDex), _value, rate);\n        return true;\n    }\n\n    function name() public view returns (string memory) {\n        return _name;\n    }\n}\n",
  "sourcePath": "/home/ankush/eth-dex/src/contracts/EthSwap.sol",
  "compiler": {
    "name": "solc",
    "version": "0.8.14+commit.80d49f37.Emscripten.clang"
  },
  "schemaVersion": "3.3.4",
  "updatedAt": "2023-05-12T05:32:14.235Z",
  "networkType": "ethereum",
  "devdoc": {
    "kind": "dev",
    "methods": {},
    "version": 1
  },
  "userdoc": {
    "kind": "user",
    "methods": {},
    "version": 1
  }
}